:100000000C942A000C945C030C9447000C94470059
:100010000C9447000C9447000C9447000C94470044
:100020000C9447000C9447000C9447000C94470034
:100030000C9447000C9447000C9447000C94470024
:100040000C9447000C9447000C9447000C94470014
:100050000C94470011241FBECFE5D8E0DEBFCDBF12
:1000600010E0A0E6B0E0E6E0F1E102C005900D92FC
:10007000A438B107D9F720E0A4E8B0E001C01D9290
:10008000AB3BB207E1F70E94EE020C9481080C949E
:10009000000086B1806486B90895FC0180B78F7135
:1000A00080BF90B78081892B80BF16B893818181F2
:1000B000892B806886B917B894818281892B87B98A
:1000C0008381882309F0789408951F93CF93DF9359
:1000D000EC01162FE4E8F0E0118281E001C0880F06
:1000E0006A95EAF780831282BF0189E390E00E945B
:1000F000100187B1807E87B967B1612B67B90E9413
:100100004900349BFECF86B1806186B98A818823FD
:1001100069F064B185B16295669566956370682BE8
:1001200070E080E090E00E9448070CC084B165B1A7
:1001300070E0762F6627682B072E000C880B990B32
:100140000E9448072C812034B9F420E030E040E8D8
:100150005FE30E94AB0620E030E040EA50E40E94FA
:10016000D40720E030E040E85AE30E94D4076D83D2
:100170007E838F83988718C0203CB1F420E030E064
:1001800040E85FE30E94AB062AE037ED43E250E42B
:100190000E94D40720E030E040E85AE30E94D407F0
:1001A0006D837E838F839887DF91CF911F91089510
:1001B000FC01808181110BC08181823021F484B7E0
:1001C0008F7B84BF1DC084B7806484BF19C085B78E
:1001D000807F85BF2081213029F495B78181892BCB
:1001E00085BF0EC045B7918130E0220F331F892FA4
:1001F00090E002C0880F991F2A95E2F7842B85BFF3
:100200004BB7208130E02B5F3F4F81E090E002C090
:10021000880F991F2A95E2F7842B8BBF7894089555
:10022000DC01FB018181813099F4808111969C91E0
:100230001197892B11968C9311978281813081F4CB
:10024000808112969C911297892B12968C93089517
:100250009081909511968C911197982311969C936B
:100260000895442329F0FC012281622B62830895C2
:100270006095FC012281622362830895FC016095F0
:1002800092816923462B428308950F931F93CF9346
:10029000DF9300D01F92CDB7DEB78C01FC018381C4
:1002A000882344F49DB18370892B8DB98EB1816010
:1002B0008EB904C09DB18370892B8DB9F8018081FE
:1002C00084FF16C081E08A8380EB8983BE016F5F63
:1002D0007F4F86E390E00E9410011A8280E48983B8
:1002E000BE016F5F7F4F86E390E00E94100115C052
:1002F0001A8280EB8983BE016F5F7F4F86E390E0B7
:100300000E94100181E08A8380E48983BE016F5FCF
:100310007F4F86E390E00E941001F80142818181C5
:10032000348125819081842B832B822B892B8DB95D
:100330008DB180648DB98581803809F478940F90EF
:100340000F900F90DF91CF911F910F910895CF9350
:10035000DF93EC01198618861D861C867F836E83C9
:100360005B874A8740E060E186E390E00E943101CC
:100370000BC0EE81FF8180818FB9779BFECF8E818C
:100380009F8101969F838E838A859B859C01215046
:1003900031093B872A87892B61F741E060E186E3D9
:1003A00090E00E943101DF91CF910895CF93DF93C8
:1003B000EC01598748877F836E833D872C873B8775
:1003C0002A8740E060E186E390E00E94310114C09A
:1003D000EE81FF8180818FB9779BFECFE885F9851B
:1003E0008FB18083888599850196998788878E81CA
:1003F0009F8101969F838E838C859D859C012150D2
:1004000031093D872C87892B19F741E060E186E3AC
:1004100090E00E943101DF91CF91089541E068E0C2
:1004200086E390E00E94310185E08A95F1F70000B3
:1004300040E068E086E390E00E9431018FE39FE1B5
:100440000197F1F700C000000895CF93C82F482FFF
:10045000407F60EF89E390E00E943E010E940E021F
:1004600080E1C89FA001112460EF89E390E00E9421
:100470003E010E940E02CF910895CF93C82F41E014
:1004800062E086E390E00E94310140E064E086E3B0
:1004900090E00E9431018C2F0E942502CF91089597
:1004A000CF93C82F40E066E086E390E00E943101E0
:1004B0008C2F0E942502CF910895E82FF0E0E85993
:1004C000FF4F8081860F81500E9450020895CF9384
:1004D000DF932FEF89EF90E0215080409040E1F7CB
:1004E00000C00000C7E8D0E081E089838EE0888307
:1004F0001A82BE0186E390E00E94100180EF88839B
:10050000BE0189E390E00E94100183E30E94500243
:1005100082E30E94500288E20E9450028CE00E9416
:10052000500281E00E945002DF91CF910895CF9355
:10053000DF93EA010E945D0203C021960E943D0202
:1005400088818111FACFDF91CF9108958F929F9288
:10055000AF92BF92CF92DF92EF92FF920F931F93D1
:10056000CF93DF93CDB7DEB7982E862ECA01ADB6F6
:10057000BEB6E22EF12C2DB73EB72E193F090FB6AD
:10058000F8943EBF0FBE2DBF2F5F3F4F69014AE079
:1005900050E0B9010E94410800E010E005C080E28F
:1005A0000E943D020F5F1F4F0E151F05C0F3A601ED
:1005B000682D892D0E9497020FB6F894BEBE0FBE1B
:1005C000ADBEDF91CF911F910F91FF90EF90DF9023
:1005D000CF90BF90AF909F908F90089580E690E06D
:1005E0000E944D000E9427050E94670281B38E7F02
:1005F00081BB83E291E0A0E0B0E08093AC009093F7
:10060000AD00A093AE00B093AF00E0EBF0E08081CE
:10061000807F8860808360E080E690E00E946500D3
:10062000609165007091660080916700909168000C
:100630000E941707862F90E09093AB008093AA004A
:100640006093B10060E08CEA90E00E945A052FEFC1
:1006500081EE94E0215080409040E1F700C000001E
:100660004BE650E061E081E00E9497024091AA00D1
:100670005091AB0022E06DE081E00E94A6028091E3
:10068000BA00882349F01092BA008091A10090E04E
:1006900090939B0080939A0047E750E061E082E0EE
:1006A0000E94970240919A0050919B0022E06DE0D9
:1006B00082E00E94A602AFCF1F920F920FB60F9258
:1006C00011242F933F934F935F936F937F938F9357
:1006D0009F93AF93BF93EF93FF9381E08093BA0012
:1006E0008CE990E00E943906FF91EF91BF91AF91A4
:1006F0009F918F917F916F915F914F913F912F913A
:100700000F900FBE0F901F901895CF93DF9300D0DE
:100710001F92CDB7DEB793E099838A831B8223E0D3
:1007200030E0AE014F5F5F4FBA018CE890E00E946D
:10073000D6018B810F900F900F90DF91CF9108958C
:10074000CF93DF9300D01F92CDB7DEB792E09983AD
:100750008A836B8343E050E0BE016F5F7F4F8CE87C
:1007600090E00E94A7010F900F900F90DF91CF9122
:100770000895CF93DF931F92CDB7DEB780EC8983C6
:1007800041E050E0BE016F5F7F4F8CE890E00E9437
:10079000A7012FEF89EF90E0215080409040E1F7D2
:1007A00000C000000F90DF91CF910895CF93DF93A9
:1007B000D62FC42F682F8AE20E94A0036D2F89E2F2
:1007C0000E94A0036C2F88E20E94A003DF91CF91CA
:1007D0000895CF93DF9300D01F92CDB7DEB792E09C
:1007E00099839FE09A838B8343E050E0BE016F5F63
:1007F0007F4F8CE890E00E94A7010F900F900F9020
:10080000DF91CF910895CF92DF92EF92FF92CF9335
:10081000C82F6A017B01222309F44AC0CB01BA0127
:10082000689412F896958795779567951694D1F701
:100830002C2F30E0285F3F4F822F880F880F0E94B7
:10084000A003D701C601072E7BE1B695A795979522
:1008500087957A95D1F7702DCC0FCC0F6C2D6295C2
:10086000660F607E862B682F686081E28C0F0E9485
:10087000A003C701B601052E5BE096958795779595
:1008800067955A95D1F7502D83E28C0F0E94A003F3
:10089000C701B601052E53E1969587957795679523
:1008A0005A95D1F7502D82E28C0F0E94A0031DC0F3
:1008B000CB01BA01689412F896958795779567955C
:1008C0001694D1F72C2F30E0285F3F4F822F880FEE
:1008D000880F0E94A0036C2D6295660F607E8C2F9E
:1008E000880F880F8F5D0E94A003CF91FF90EF903B
:1008F000DF90CF900895CF92DF92EF92FF92CF9347
:10090000DF93C82F6A017B01222309F45CC0CB016D
:10091000BA01689412F8969587957795679516941D
:10092000D1F7DC2FDD0FDD0FC33010F024E001C064
:1009300020E0822F8D0F0E94A0038C2D8295880FBE
:10094000807EB701A601032E3BE17695679557950A
:1009500047953A95D1F7302D482B642F6860C33006
:1009600010F084E001C080E08D0F8F5F0E94A00333
:10097000C701B601052E5BE096958795779567953B
:100980005A95D1F7502DC33010F024E001C020E07B
:100990002D0F83E0820F0E94A003C701B601052E30
:1009A00053E196958795779567955A95D1F7502D90
:1009B000C33010F024E001C020E02D0F82E0820F50
:1009C0000E94A00323C0CB01BA01689412F8969547
:1009D0008795779567951694D1F7DC2FDD0FDD0F9E
:1009E000C33010F024E001C020E0822F8D0F0E9460
:1009F000A0036C2D6295660F607EC33010F084E01A
:100A000001C080E08D0F8F5F0E94A003DF91CF9126
:100A1000FF90EF90DF90CF900895CF93DF9300D0B9
:100A20001F92CDB7DEB792E099839BE29A838B83C6
:100A300043E050E0BE016F5F7F4F8CE890E00E9482
:100A4000A7010F900F900F90DF91CF910895EAE8E2
:100A5000F0E081E080831182ECE8F0E080E18083C7
:100A600084E18383CF010E9445010E94B90387E09E
:100A70000E940D0580E80E94E90347E86AEF83E0E1
:100A80000E94D60320E044E250E060E070E080E0A5
:100A90000E947B0420E04FEF50E060E070E080E0D7
:100AA0000E94030480E00E94E9038AE890E00E942B
:100AB000D8000895EF92FF920F931F93CF93DF9387
:100AC000CDB7DEB729970FB6F894DEBF0FBECDBF06
:100AD0008C01F62EFC01848184FF59C080819181B4
:100AE000A281B381BC01CD01689412F896958795D7
:100AF000779567951694D1F7EF2CEE0CEE0CEE0C73
:100B0000EE0C81E38E0D0E94A003F801808191819B
:100B1000A281B381682F6295660F607E072E7BE10C
:100B2000B695A795979587957A95D1F7702D862BD1
:100B3000682F686082E38E0D0E94A003F801808117
:100B40009181A281B381BC01CD01052E53E196951F
:100B50008795779567955A95D1F7502D83E38E0D3C
:100B60000E94A003F80180819181A281B381BC0120
:100B7000CD01052E5BE096958795779567955A95FB
:100B8000D1F7502D84E38E0D0E94A00321C0F801FF
:100B900080819181A281B381BC01CD01689412F85A
:100BA00096958795779567951694D1F7EF2CEE0C6F
:100BB000EE0CEE0CEE0C81E38E0D0E94A003F8010A
:100BC00060816295660F607E82E38E0D0E94A003B5
:100BD000F801848185FF08C060E48F2D8295807FB5
:100BE0008B5C0E94A0032CC0F80164816F708F2D74
:100BF0008295807F8B5C0E94A00381E4898320E042
:100C000030E00EC0C9010196F801E20FF31F258103
:100C1000E1E0F0E0EC0FFD1FE80FF91F20839C01DD
:100C2000F80184818F7090E0281739075CF349E060
:100C300050E0BE016F5F7F4F8CE890E00E94A701FB
:100C400081E88F0D898341E050E0BE016F5F7F4FE7
:100C50008CE890E00E94A70129960FB6F894DEBFB9
:100C60000FBECDBFDF91CF911F910F91FF90EF90FD
:100C70000895EF92FF920F931F93CF93DF937C0120
:100C80008CE20E94850380FD04C081FF5BC0D1E03F
:100C900001C0D0E08EE00E948503807490E0082EB1
:100CA000892F000C881F990B000C881F991FF701D2
:100CB000948180FB95F99483D295D07F82E68D0F45
:100CC0000E948503C82F887090E09595879595952B
:100CD000879595958795F701948180FB94F9948386
:100CE00081E68D0F0E94850390E0A0E0B0E0880FC0
:100CF000991FAA1FBB1F880F991FAA1FBB1F880F10
:100D0000991FAA1FBB1FC295C695C7708C2BF701F0
:100D100080839183A283B383C0E00CC00C2F10E0CA
:100D20008C2F8D0F8A590E948503F701E00FF11F68
:100D30008583CF5FC83091F760E08CE20E94A0030A
:100D400081E001C080E0DF91CF911F910F91FF9072
:100D5000EF9008955058BB27AA270E94C2060C9412
:100D60009A070E948C0738F00E94930720F039F40C
:100D70009F3F19F426F40C9489070EF4E095E7FBE5
:100D80000C948307E92F0E94AB0758F3BA17620748
:100D900073078407950720F079F4A6F50C94CD0726
:100DA0000EF4E0950B2EBA2FA02D0B01B901900186
:100DB0000C01CA01A0011124FF27591B99F0593FCA
:100DC00050F4503E68F11A16F040A22F232F342F12
:100DD0004427585FF3CF469537952795A795F04060
:100DE0005395C9F77EF41F16BA0B620B730B840B75
:100DF000BAF09150A1F0FF0FBB1F661F771F881F2D
:100E0000C2F70EC0BA0F621F731F841F48F4879584
:100E100077956795B795F7959E3F08F0B0CF939576
:100E2000880F08F09927EE0F9795879508950E94EF
:100E3000B30788F09F5798F0B92F9927B751B0F0B2
:100E4000E1F0660F771F881F991F1AF0BA95C9F74E
:100E500014C0B13091F00E94CD07B1E008950C9418
:100E6000CD07672F782F8827B85F39F0B93FCCF3CB
:100E7000869577956795B395D9F73EF490958095CB
:100E8000709561957F4F8F4F9F4F0895E89409C0EB
:100E900097FB3EF490958095709561957F4F8F4FAD
:100EA0009F4F9923A9F0F92F96E9BB279395F695C3
:100EB000879577956795B795F111F8CFFAF4BB0F41
:100EC00011F460FF1BC06F5F7F4F8F4F9F4F16C0A5
:100ED000882311F096E911C0772321F09EE8872F2F
:100EE000762F05C0662371F096E8862F70E060E0EB
:100EF0002AF09A95660F771F881FDAF7880F969564
:100F0000879597F9089597F99F6780E870E060E00A
:100F100008959FEF80EC089500240A941616170692
:100F200018060906089500240A94121613061406DA
:100F300005060895092E0394000C11F4882352F03D
:100F4000BB0F40F4BF2B11F460FF04C06F5F7F4FF5
:100F50008F4F9F4F089557FD9058440F551F59F0DC
:100F60005F3F71F04795880F97FB991F61F09F3F96
:100F700079F087950895121613061406551FF2CFBF
:100F80004695F1DF08C0161617061806991FF1CF0F
:100F900086957105610508940895E894BB27662736
:100FA0007727CB0197F908950E94E7070C949A07D9
:100FB0000E948C0738F00E94930720F0952311F0CF
:100FC0000C9483070C94890711240C94CE070E947B
:100FD000AB0770F3959FC1F3950F50E0551F629FCB
:100FE000F001729FBB27F00DB11D639FAA27F00D82
:100FF000B11DAA1F649F6627B00DA11D661F829FA9
:101000002227B00DA11D621F739FB00DA11D621F8D
:10101000839FA00D611D221F749F3327A00D611DAA
:10102000231F849F600D211D822F762F6A2F11248C
:101030009F5750409AF0F1F088234AF0EE0FFF1FBF
:10104000BB1F661F771F881F91505040A9F79E3F16
:10105000510580F00C9483070C94CE075F3FE4F3B6
:10106000983ED4F3869577956795B795F795E7956C
:101070009F5FC1F7FE2B880F911D9695879597F975
:1010800008954532510520F4423010F00C944C087C
:10109000FB011082CB010895BB274A3031F499231C
:1010A00022F4BDE2909581959F4F0C945808BB2780
:1010B000FB015527AA27880F991FAA1FA41710F014
:1010C000A41B83955051B9F7A05DAA3308F0A95D20
:1010D000A193009779F7B111B1931192CB010C94C0
:1010E0007108DC01FC01672F71917723E1F73297DA
:1010F00004C07C916D9370836291AE17BF07C8F3F3
:061100000895F894FFCFF2
:1011060000010000400000000080C04144435F56DB
:10111600616C7565203D0053706565645F56616C52
:0411260075653D00AE
:00000001FF
