:100000000C942A000C94FC020C9447000C944700BA
:100010000C94BF000C94E6000C9447000C9447002D
:100020000C9447000C9447000C9471000C949800B9
:100030000C9447000C9447000C9447000C94470024
:100040000C9447000C9447000C9447000C94470014
:100050000C94470011241FBECFE5D8E0DEBFCDBF12
:1000600010E0A0E6B0E0E6EEFEE002C005900D92E2
:10007000A036B107D9F720E0A0E6B0E001C01D929C
:10008000A53AB207E1F70E94AF020C9471070C94F5
:100090000000811113C082E083BF8CBF22E030E0FA
:1000A00009C012BE08B601FEFDCF88B7826088BFC6
:1000B0002F5F3F4F26173707A0F3089582E085BDD5
:1000C00083BD22E030E009C014BC08B607FEFDCFB6
:1000D00088B7806888BF2F5F3F4F26173707A0F388
:1000E00008951F920F920FB60F9211242F933F93F2
:1000F0004F935F936F937F938F939F93AF93BF9330
:10010000EF93FF93E0916600F09167000995FF91EE
:10011000EF91BF91AF919F918F917F916F915F917F
:100120004F913F912F910F900FBE0F901F901895F8
:100130001F920F920FB60F9211242F933F934F935C
:100140005F936F937F938F939F93AF93BF93EF933F
:10015000FF93E0916400F09165000995FF91EF91A4
:10016000BF91AF919F918F917F916F915F914F91CF
:100170003F912F910F900FBE0F901F9018951F92D7
:100180000F920FB60F9211242F933F934F935F93CB
:100190006F937F938F939F93AF93BF93EF93FF934F
:1001A000E0916200F09163000995FF91EF91BF919A
:1001B000AF919F918F917F916F915F914F913F91FF
:1001C0002F910F900FBE0F901F9018951F920F92B6
:1001D0000FB60F9211242F933F934F935F936F931A
:1001E0007F938F939F93AF93BF93EF93FF93E09190
:1001F0006000F09161000995FF91EF91BF91AF917F
:100200009F918F917F916F915F914F913F912F912E
:100210000F900FBE0F901F901895FC0180818111E7
:100220000BC08181823021F484B78F7B84BF1DC0D5
:1002300084B7806484BF19C085B7807F85BF208163
:10024000213029F495B78181892B85BF0EC045B730
:10025000918130E0220F331F892F90E002C0880F78
:10026000991F2A95E2F7842B85BF4BB7208130E098
:100270002B5F3F4F81E090E002C0880F991F2A95C5
:10028000E2F7842B8BBF78940895DC01FB01818118
:10029000813099F4808111969C911197892B119648
:1002A0008C9311978281813081F4808112969C9188
:1002B0001297892B12968C930895908190951196A0
:1002C0008C911197982311969C930895442329F0BB
:1002D000FC012281622B628308956095FC012281DA
:1002E000622362830895FC01609592816923462B05
:1002F000428308950F931F93CF93DF9300D01F92F3
:10030000CDB7DEB78C01FC018381882344F49DB115
:100310008370892B8DB98EB181608EB904C09DB177
:100320008370892B8DB9F801808184FF16C081E02C
:100330008A8380EB8983BE016F5F7F4F86E390E005
:100340000E9445011A8280E48983BE016F5F7F4F5E
:1003500086E390E00E94450115C01A8280EB8983F4
:10036000BE016F5F7F4F86E390E00E94450181E010
:100370008A8380E48983BE016F5F7F4F86E390E0CC
:100380000E944501F801428181813481258190815B
:10039000842B832B822B892B8DB98DB180648DB9F1
:1003A0008581803809F478940F900F900F90DF9139
:1003B000CF911F910F910895CF93DF93EC01198690
:1003C00018861D861C867F836E835B874A8740E084
:1003D00060E186E390E00E9466010BC0EE81FF8140
:1003E00080818FB9779BFECF8E819F8101969F83FD
:1003F0008E838A859B859C01215031093B872A8702
:10040000892B61F741E060E186E390E00E9466019C
:10041000DF91CF910895CF93DF93EC0159874887FF
:100420007F836E833D872C873B872A8740E060E18E
:1004300086E390E00E94660114C0EE81FF81808116
:100440008FB9779BFECFE885F9858FB1808388854A
:1004500099850196998788878E819F8101969F83D0
:100460008E838C859D859C01215031093D872C8789
:10047000892B19F741E060E186E390E00E94660174
:10048000DF91CF91089541E068E086E390E00E941B
:10049000660185E08A95F1F7000040E068E086E3B8
:1004A00090E00E9466018FE39FE10197F1F700C0A1
:1004B00000000895CF93C82F482F407F60EF89E355
:1004C00090E00E9473010E94430280E1C89FA00156
:1004D000112460EF89E390E00E9473010E944302BF
:1004E000CF910895CF93C82F40E066E086E390E077
:1004F0000E9466018C2F0E945A02CF910895CF93DB
:10050000DF932FEF89EF90E0215080409040E1F79A
:1005100000C00000C8E6D0E081E089838EE08883D7
:100520001A82BE0186E390E00E94450180EF888335
:10053000BE0189E390E00E94450183E30E947202BC
:1005400082E30E94720288E20E9472028CE00E94A2
:10055000720281E00E947202DF91CF9108950E94A1
:10056000C4040E947F0284E291E0A0E0B0E08093A6
:10057000920090939300A0939400B0939500E6E9C5
:10058000F0E08081807F88608083E0EAF0E0138281
:10059000148280E4808385E0828380E3818380EE1F
:1005A00081BB80E882BB6091840070E080E090E0D5
:1005B0000E94780623E333E343E350E40E94D50529
:1005C00020E030E04AEF53E40E94040720E030E0EE
:1005D00040E85FE30E9469050E94470680E00E94B0
:1005E000490012BA2FEF89EF90E0215080409040EF
:1005F000E1F700C00000D5CF1F920F920FB60F9207
:1006000011242F933F934F935F936F937F938F9317
:100610009F93AF93BF93EF93FF938FE790E00E9478
:10062000F704FF91EF91BF91AF919F918F917F91CF
:100630006F915F914F913F912F910F900FBE0F904F
:100640001F901895CF93DF9300D01F92CDB7DEB7E0
:1006500093E099838A831B8223E030E0AE014F5FF1
:100660005F4FBA018DE690E00E940B028B810F90E4
:100670000F900F90DF91CF910895CF93DF9300D02B
:100680001F92CDB7DEB792E099838A836B8343E0F4
:1006900050E0BE016F5F7F4F8DE690E00E94DC016D
:1006A0000F900F900F90DF91CF910895CF93DF932C
:1006B0001F92CDB7DEB780EC898341E050E0BE01E8
:1006C0006F5F7F4F8DE690E00E94DC012FEF89EF96
:1006D00090E0215080409040E1F700C000000F9072
:1006E000DF91CF910895CF93DF93D62FC42F682F3A
:1006F0008AE20E943D036D2F89E20E943D036C2F28
:1007000088E20E943D03DF91CF910895CF93DF935C
:1007100000D01F92CDB7DEB792E099839FE09A8315
:100720008B8343E050E0BE016F5F7F4F8DE690E02A
:100730000E94DC010F900F900F90DF91CF910895F0
:10074000CF92DF92EF92FF92CF93C82F6A017B0185
:10075000222309F44AC0CB01BA01689412F8969595
:100760008795779567951694D1F72C2F30E0285F01
:100770003F4F822F880F880F0E943D03D701C6018B
:10078000072E7BE1B695A795979587957A95D1F732
:10079000702DCC0FCC0F6C2D6295660F607E862B72
:1007A000682F686081E28C0F0E943D03C701B6018B
:1007B000052E5BE096958795779567955A95D1F7C5
:1007C000502D83E28C0F0E943D03C701B601052E18
:1007D00053E196958795779567955A95D1F7502D62
:1007E00082E28C0F0E943D031DC0CB01BA016894C8
:1007F00012F896958795779567951694D1F72C2FD3
:1008000030E0285F3F4F822F880F880F0E943D0302
:100810006C2D6295660F607E8C2F880F880F8F5D20
:100820000E943D03CF91FF90EF90DF90CF9008950D
:10083000CF92DF92EF92FF92CF93DF93C82F6A019E
:100840007B01222309F45CC0CB01BA01689412F841
:1008500096958795779567951694D1F7DC2FDD0FE0
:10086000DD0FC33010F024E001C020E0822F8D0F97
:100870000E943D038C2D8295880F807EB701A601D2
:10088000032E3BE176956795579547953A95D1F7B5
:10089000302D482B642F6860C33010F084E001C015
:1008A00080E08D0F8F5F0E943D03C701B601052ECA
:1008B0005BE096958795779567955A95D1F7502D7A
:1008C000C33010F024E001C020E02D0F83E0820F40
:1008D0000E943D03C701B601052E53E19695879509
:1008E000779567955A95D1F7502DC33010F024E0D5
:1008F00001C020E02D0F82E0820F0E943D0323C043
:10090000CB01BA01689412F896958795779567950B
:100910001694D1F7DC2FDD0FDD0FC33010F024E08B
:1009200001C020E0822F8D0F0E943D036C2D629547
:10093000660F607EC33010F084E001C080E08D0F50
:100940008F5F0E943D03DF91CF91FF90EF90DF908A
:10095000CF900895CF93DF9300D01F92CDB7DEB72D
:1009600092E099839BE29A838B8343E050E0BE013F
:100970006F5F7F4F8DE690E00E94DC010F900F903B
:100980000F90DF91CF910895EBE6F0E081E0808356
:100990001182EDE6F0E080E1808384E18383CF0182
:1009A0000E947A010E94560387E00E94AA0480E810
:1009B0000E94860347E86AEF83E00E94730320E009
:1009C00043E250E060E070E080E00E94180420E024
:1009D0004FEF50E060E070E080E00E94A00380E014
:1009E0000E9486038BE690E00E940D010895EF922D
:1009F000FF920F931F93CF93DF937C018CE20E94B1
:100A0000220380FD04C081FF5BC0D1E001C0D0E0C3
:100A10008EE00E942203807490E0082E892F000C43
:100A2000881F990B000C881F991FF701948180FB88
:100A300095F99483D295D07F82E68D0F0E94220390
:100A4000C82F887090E09595879595958795959591
:100A50008795F701948180FB94F9948381E68D0F4B
:100A60000E94220390E0A0E0B0E0880F991FAA1F27
:100A7000BB1F880F991FAA1FBB1F880F991FAA1F92
:100A8000BB1FC295C695C7708C2BF70180839183DD
:100A9000A283B383C0E00CC00C2F10E08C2F8D0F0D
:100AA0008A590E942203F701E00FF11F8583CF5F6F
:100AB000C83091F760E08CE20E943D0381E001C004
:100AC00080E0DF91CF911F910F91FF90EF900895FB
:100AD0005058BB27AA270E9480050C94CA060E9482
:100AE000BC0638F00E94C30620F039F49F3F19F489
:100AF00026F40C94B9060EF4E095E7FB0C94B306CB
:100B0000E92F0E94DB0658F3BA17620773078407C0
:100B1000950720F079F4A6F50C94FD060EF4E09507
:100B20000B2EBA2FA02D0B01B90190010C01CA01A7
:100B3000A0011124FF27591B99F0593F50F4503E52
:100B400068F11A16F040A22F232F342F4427585F44
:100B5000F3CF469537952795A795F0405395C9F75C
:100B60007EF41F16BA0B620B730B840BBAF0915014
:100B7000A1F0FF0FBB1F661F771F881FC2F70EC0B3
:100B8000BA0F621F731F841F48F487957795679586
:100B9000B795F7959E3F08F0B0CF9395880F08F072
:100BA0009927EE0F9795879508950E94E9050C9473
:100BB000CA060E94C30658F00E94BC0640F029F401
:100BC0005F3F29F00C94B30651110C94FE060C946F
:100BD000B9060E94DB0668F39923B1F3552391F31C
:100BE000951B550BBB27AA2762177307840738F09C
:100BF0009F5F5F4F220F331F441FAA1FA9F335D0F9
:100C00000E2E3AF0E0E832D091505040E695001CAC
:100C1000CAF72BD0FE2F29D0660F771F881FBB1F66
:100C2000261737074807AB07B0E809F0BB0B802D44
:100C3000BF01FF2793585F4F3AF09E3F510578F070
:100C40000C94B3060C94FE065F3FE4F3983ED4F395
:100C5000869577956795B795F7959F5FC9F7880F44
:100C6000911D9695879597F90895E1E0660F771F96
:100C7000881FBB1F621773078407BA0720F0621B27
:100C8000730B840BBA0BEE1F88F7E09508950E9452
:100C9000E30688F09F5798F0B92F9927B751B0F025
:100CA000E1F0660F771F881F991F1AF0BA95C9F7F0
:100CB00014C0B13091F00E94FD06B1E008950C948B
:100CC000FD06672F782F8827B85F39F0B93FCCF33E
:100CD000869577956795B395D9F73EF4909580956D
:100CE000709561957F4F8F4F9F4F0895E89409C08D
:100CF00097FB3EF490958095709561957F4F8F4F4F
:100D00009F4F9923A9F0F92F96E9BB279395F69564
:100D1000879577956795B795F111F8CFFAF4BB0FE2
:100D200011F460FF1BC06F5F7F4F8F4F9F4F16C046
:100D3000882311F096E911C0772321F09EE8872FD0
:100D4000762F05C0662371F096E8862F70E060E08C
:100D50002AF09A95660F771F881FDAF7880F969505
:100D6000879597F9089597F99F6780E870E060E0AC
:100D700008959FEF80EC089500240A941616170634
:100D800018060906089500240A941216130614067C
:100D900005060895092E0394000C11F4882352F0DF
:100DA000BB0F40F4BF2B11F460FF04C06F5F7F4F97
:100DB0008F4F9F4F089557FD9058440F551F59F07E
:100DC0005F3F71F04795880F97FB991F61F09F3F38
:100DD00079F087950895121613061406551FF2CF61
:100DE0004695F1DF08C0161617061806991FF1CFB1
:100DF00086957105610508940895E894BB276627D8
:100E00007727CB0197F908950E9417070C94CA061B
:100E10000E94BC0638F00E94C30620F0952311F012
:100E20000C94B3060C94B90611240C94FE060E948F
:100E3000DB0670F3959FC1F3950F50E0551F629F3D
:100E4000F001729FBB27F00DB11D639FAA27F00D23
:100E5000B11DAA1F649F6627B00DA11D661F829F4A
:100E60002227B00DA11D621F739FB00DA11D621F2F
:100E7000839FA00D611D221F749F3327A00D611D4C
:100E8000231F849F600D211D822F762F6A2F11242E
:100E90009F5750409AF0F1F088234AF0EE0FFF1F61
:100EA000BB1F661F771F881F91505040A9F79E3FB8
:100EB000510580F00C94B3060C94FE065F3FE4F3FA
:100EC000983ED4F3869577956795B795F795E7950E
:100ED0009F5FC1F7FE2B880F911D9695879597F917
:060EE0000895F894FFCF15
:00000001FF
